{
  "abi": [
    {
      "inputs": [
        {
          "internalType": "address",
          "name": "hub",
          "type": "address"
        }
      ],
      "stateMutability": "nonpayable",
      "type": "constructor"
    },
    {
      "anonymous": false,
      "inputs": [
        {
          "indexed": true,
          "internalType": "uint256",
          "name": "id",
          "type": "uint256"
        },
        {
          "indexed": false,
          "internalType": "string",
          "name": "infoCid",
          "type": "string"
        },
        {
          "indexed": false,
          "internalType": "string",
          "name": "contentCid",
          "type": "string"
        },
        {
          "indexed": false,
          "internalType": "uint256[]",
          "name": "partnerRequests",
          "type": "uint256[]"
        }
      ],
      "name": "AnnouncementCreated",
      "type": "event"
    },
    {
      "inputs": [],
      "name": "HUB",
      "outputs": [
        {
          "internalType": "address",
          "name": "",
          "type": "address"
        }
      ],
      "stateMutability": "view",
      "type": "function"
    },
    {
      "inputs": [
        {
          "internalType": "uint256",
          "name": "",
          "type": "uint256"
        }
      ],
      "name": "announcements",
      "outputs": [
        {
          "internalType": "uint256",
          "name": "id",
          "type": "uint256"
        },
        {
          "internalType": "string",
          "name": "infoCid",
          "type": "string"
        },
        {
          "internalType": "string",
          "name": "contentCid",
          "type": "string"
        },
        {
          "internalType": "address",
          "name": "owner",
          "type": "address"
        }
      ],
      "stateMutability": "view",
      "type": "function"
    },
    {
      "inputs": [
        {
          "internalType": "uint256",
          "name": "announcementId",
          "type": "uint256"
        },
        {
          "internalType": "uint256",
          "name": "partnerRequestIndex",
          "type": "uint256"
        }
      ],
      "name": "becomePartner",
      "outputs": [],
      "stateMutability": "nonpayable",
      "type": "function"
    },
    {
      "inputs": [
        {
          "internalType": "string",
          "name": "infoCid",
          "type": "string"
        },
        {
          "internalType": "string",
          "name": "contentCid",
          "type": "string"
        },
        {
          "internalType": "uint256[]",
          "name": "partnerRequests",
          "type": "uint256[]"
        }
      ],
      "name": "createAnnouncement",
      "outputs": [
        {
          "internalType": "uint256",
          "name": "",
          "type": "uint256"
        }
      ],
      "stateMutability": "nonpayable",
      "type": "function"
    },
    {
      "inputs": [
        {
          "internalType": "uint256",
          "name": "id",
          "type": "uint256"
        }
      ],
      "name": "getPartnerRequests",
      "outputs": [
        {
          "components": [
            {
              "internalType": "uint256",
              "name": "profileId",
              "type": "uint256"
            },
            {
              "internalType": "bool",
              "name": "isAccepted",
              "type": "bool"
            }
          ],
          "internalType": "struct LensBalus.PartnerRequest[]",
          "name": "",
          "type": "tuple[]"
        }
      ],
      "stateMutability": "view",
      "type": "function"
    },
    {
      "inputs": [
        {
          "internalType": "uint256",
          "name": "id",
          "type": "uint256"
        }
      ],
      "name": "getPartners",
      "outputs": [
        {
          "components": [
            {
              "internalType": "uint256",
              "name": "profileId",
              "type": "uint256"
            },
            {
              "internalType": "uint256",
              "name": "pubId",
              "type": "uint256"
            }
          ],
          "internalType": "struct LensBalus.Partner[]",
          "name": "",
          "type": "tuple[]"
        }
      ],
      "stateMutability": "view",
      "type": "function"
    },
    {
      "inputs": [
        {
          "internalType": "uint256",
          "name": "announcementId",
          "type": "uint256"
        }
      ],
      "name": "post",
      "outputs": [],
      "stateMutability": "nonpayable",
      "type": "function"
    }
  ],
  "bytecode": {
    "object": "0x60a060405234801561001057600080fd5b506040516116a23803806116a283398101604081905261002f916100b0565b6001600160a01b03811661009f5760405162461bcd60e51b815260206004820152602d60248201527f4c656e73506f73745363686564756c65723a206875622063616e6e6f7420626560448201526c207a65726f206164647265737360981b606482015260840160405180910390fd5b6001600160a01b03166080526100e0565b6000602082840312156100c257600080fd5b81516001600160a01b03811681146100d957600080fd5b9392505050565b60805161159361010f6000396000818160f401528181610a5e01528181610af60152610df001526115936000f3fe608060405234801561001057600080fd5b506004361061007d5760003560e01c8063a4c52b861161005b578063a4c52b86146100ef578063a8cbf2381461012e578063caa5863c1461014e578063dfcea9271461016357600080fd5b80631bcfbe31146100825780632ede1b44146100ae57806349fc97d9146100cf575b600080fd5b610095610090366004610f30565b610176565b6040516100a59493929190610f8f565b60405180910390f35b6100c16100bc36600461108b565b6102b8565b6040519081526020016100a5565b6100e26100dd366004610f30565b610478565b6040516100a59190611178565b6101167f000000000000000000000000000000000000000000000000000000000000000081565b6040516001600160a01b0390911681526020016100a5565b61014161013c366004610f30565b6106e1565b6040516100a591906111c9565b61016161015c366004610f30565b61094a565b005b61016161017136600461120b565b610cbb565b600060208190529081526040902080546001820180549192916101989061122d565b80601f01602080910402602001604051908101604052809291908181526020018280546101c49061122d565b80156102115780601f106101e657610100808354040283529160200191610211565b820191906000526020600020905b8154815290600101906020018083116101f457829003601f168201915b5050505050908060020180546102269061122d565b80601f01602080910402602001604051908101604052809291908181526020018280546102529061122d565b801561029f5780601f106102745761010080835404028352916020019161029f565b820191906000526020600020905b81548152906001019060200180831161028257829003601f168201915b505050600390930154919250506001600160a01b031684565b600080336102c760014361127d565b60405160609290921b6bffffffffffffffffffffffff1916602083015240603482015260540160408051601f1981840301815291815281516020928301206000818152928390529120805491925090156103775760405162461bcd60e51b815260206004820152602660248201527f4c656e7342616c75733a20616e6e6f756e63656d656e7420616c72656164792060448201526565786973747360d01b60648201526084015b60405180910390fd5b8181556001810161038887826112e4565b506002810161039786826112e4565b506003810180546001600160a01b0319163317905560005b8451811015610432578160040160405180604001604052808784815181106103d9576103d96113a4565b6020908102919091018101518252600091810182905283546001808201865594835291819020835160029093020191825591909101519101805460ff19169115159190911790558061042a816113ba565b9150506103af565b50817fd8492b415768f1e555a759d95a999b3206e575d1e7c583b24f1d8f425508d8f3878787604051610467939291906113d3565b60405180910390a250949350505050565b600081815260208181526040808320815160c081019092528054825260018101805460609594840191906104ab9061122d565b80601f01602080910402602001604051908101604052809291908181526020018280546104d79061122d565b80156105245780601f106104f957610100808354040283529160200191610524565b820191906000526020600020905b81548152906001019060200180831161050757829003601f168201915b5050505050815260200160028201805461053d9061122d565b80601f01602080910402602001604051908101604052809291908181526020018280546105699061122d565b80156105b65780601f1061058b576101008083540402835291602001916105b6565b820191906000526020600020905b81548152906001019060200180831161059957829003601f168201915b505050918352505060038201546001600160a01b0316602080830191909152600483018054604080518285028101850182528281529401939260009084015b8282101561063957600084815260209081902060408051808201909152600285029091018054825260019081015460ff1615158284015290835290920191016105f5565b50505050815260200160058201805480602002602001604051908101604052809291908181526020016000905b828210156106ac57838290600052602060002090600202016040518060400160405290816000820154815260200160018201548152505081526020019060010190610666565b5050509152505080519091506000036106d75760405162461bcd60e51b815260040161036e9061143c565b6080015192915050565b600081815260208181526040808320815160c081019092528054825260018101805460609594840191906107149061122d565b80601f01602080910402602001604051908101604052809291908181526020018280546107409061122d565b801561078d5780601f106107625761010080835404028352916020019161078d565b820191906000526020600020905b81548152906001019060200180831161077057829003601f168201915b505050505081526020016002820180546107a69061122d565b80601f01602080910402602001604051908101604052809291908181526020018280546107d29061122d565b801561081f5780601f106107f45761010080835404028352916020019161081f565b820191906000526020600020905b81548152906001019060200180831161080257829003601f168201915b505050918352505060038201546001600160a01b0316602080830191909152600483018054604080518285028101850182528281529401939260009084015b828210156108a257600084815260209081902060408051808201909152600285029091018054825260019081015460ff16151582840152908352909201910161085e565b50505050815260200160058201805480602002602001604051908101604052809291908181526020016000905b82821015610915578382906000526020600020906002020160405180604001604052908160008201548152602001600182015481525050815260200190600101906108cf565b5050509152505080519091506000036109405760405162461bcd60e51b815260040161036e9061143c565b60a0015192915050565b600081815260208190526040812080549091036109795760405162461bcd60e51b815260040161036e9061143c565b60038101546001600160a01b031633146109f35760405162461bcd60e51b815260206004820152603560248201527f4c656e7342616c75733a20796f7520617265206e6f7420746865206f776e6572604482015274081bd9881d1a1a5cc8185b9b9bdd5b98d95b595b9d605a1b606482015260840161036e565b60005b6005820154811015610cb6576000826005018281548110610a1957610a196113a4565b906000526020600020906002020190508060000154600003610a3b5750610ca4565b600181015415610a4b5750610ca4565b805460405163540528b960e01b815230917f00000000000000000000000000000000000000000000000000000000000000006001600160a01b03169163540528b991610a9d9160040190815260200190565b602060405180830381865afa158015610aba573d6000803e3d6000fd5b505050506040513d601f19601f82011682018060405250810190610ade9190611482565b6001600160a01b031603610af25750610ca4565b60007f00000000000000000000000000000000000000000000000000000000000000006001600160a01b031663963ff1416040518060c0016040528085600001548152602001876002018054610b479061122d565b80601f0160208091040260200160405190810160405280929190818152602001828054610b739061122d565b8015610bc05780601f10610b9557610100808354040283529160200191610bc0565b820191906000526020600020905b815481529060010190602001808311610ba357829003601f168201915b50505050508152602001730be6bd7092ee83d44a6ec1d949626fee48cab30c6001600160a01b031681526020016000604051602001610c03911515815260200190565b604051602081830303815290604052815260200160006001600160a01b03168152602001604051806020016040528060008152508152506040518263ffffffff1660e01b8152600401610c5691906114b2565b6020604051808303816000875af1158015610c75573d6000803e3d6000fd5b505050506040513d601f19601f82011682018060405250810190610c999190611544565b600190920191909155505b80610cae816113ba565b9150506109f6565b505050565b60008281526020819052604081208054909103610cea5760405162461bcd60e51b815260040161036e9061143c565b6000816004018381548110610d0157610d016113a4565b906000526020600020906002020190508060000154600003610d6f5760405162461bcd60e51b815260206004820152602160248201527f4c656e7342616c75733a207265717565737420646f6573206e6f7420657869736044820152601d60fa1b606482015260840161036e565b60018082015460ff1615159003610ddd5760405162461bcd60e51b815260206004820152602c60248201527f4c656e7342616c75733a20726571756573742068617320616c7265616479206260448201526b19595b881858d8d95c1d195960a21b606482015260840161036e565b80546040516331a9108f60e11b815233917f00000000000000000000000000000000000000000000000000000000000000006001600160a01b031691636352211e91610e2f9160040190815260200190565b602060405180830381865afa158015610e4c573d6000803e3d6000fd5b505050506040513d601f19601f82011682018060405250810190610e709190611482565b6001600160a01b031614610ee25760405162461bcd60e51b815260206004820152603360248201527f4c656e7342616c75733a20796f752068617665206e6f742072656365697665646044820152721030903830b93a3732b9103932b8bab2b9ba1760691b606482015260840161036e565b6001818101805460ff19168217905560408051808201909152915482526000602080840182815260059095018054808501825590835291209251600290910290920191825591519101555050565b600060208284031215610f4257600080fd5b5035919050565b6000815180845260005b81811015610f6f57602081850181015186830182015201610f53565b506000602082860101526020601f19601f83011685010191505092915050565b848152608060208201526000610fa86080830186610f49565b8281036040840152610fba8186610f49565b91505060018060a01b038316606083015295945050505050565b634e487b7160e01b600052604160045260246000fd5b604051601f8201601f1916810167ffffffffffffffff8111828210171561101357611013610fd4565b604052919050565b600082601f83011261102c57600080fd5b813567ffffffffffffffff81111561104657611046610fd4565b611059601f8201601f1916602001610fea565b81815284602083860101111561106e57600080fd5b816020850160208301376000918101602001919091529392505050565b6000806000606084860312156110a057600080fd5b833567ffffffffffffffff808211156110b857600080fd5b6110c48783880161101b565b94506020915081860135818111156110db57600080fd5b6110e78882890161101b565b9450506040860135818111156110fc57600080fd5b8601601f8101881361110d57600080fd5b80358281111561111f5761111f610fd4565b8060051b9250611130848401610fea565b818152928201840192848101908a85111561114a57600080fd5b928501925b848410156111685783358252928501929085019061114f565b8096505050505050509250925092565b602080825282518282018190526000919060409081850190868401855b828110156111bc578151805185528601511515868501529284019290850190600101611195565b5091979650505050505050565b602080825282518282018190526000919060409081850190868401855b828110156111bc578151805185528601518685015292840192908501906001016111e6565b6000806040838503121561121e57600080fd5b50508035926020909101359150565b600181811c9082168061124157607f821691505b60208210810361126157634e487b7160e01b600052602260045260246000fd5b50919050565b634e487b7160e01b600052601160045260246000fd5b8181038181111561129057611290611267565b92915050565b601f821115610cb657600081815260208120601f850160051c810160208610156112bd5750805b601f850160051c820191505b818110156112dc578281556001016112c9565b505050505050565b815167ffffffffffffffff8111156112fe576112fe610fd4565b6113128161130c845461122d565b84611296565b602080601f831160018114611347576000841561132f5750858301515b600019600386901b1c1916600185901b1785556112dc565b600085815260208120601f198616915b8281101561137657888601518255948401946001909101908401611357565b50858210156113945787850151600019600388901b60f8161c191681555b5050505050600190811b01905550565b634e487b7160e01b600052603260045260246000fd5b6000600182016113cc576113cc611267565b5060010190565b6060815260006113e66060830186610f49565b6020838203818501526113f98287610f49565b8481036040860152855180825282870193509082019060005b8181101561142e57845183529383019391830191600101611412565b509098975050505050505050565b60208082526026908201527f4c656e7342616c75733a20616e6e6f756e63656d656e7420646f6573206e6f7460408201526508195e1a5cdd60d21b606082015260800190565b60006020828403121561149457600080fd5b81516001600160a01b03811681146114ab57600080fd5b9392505050565b60208152815160208201526000602083015160c060408401526114d860e0840182610f49565b60408501516001600160a01b03908116606086810191909152860151858303601f199081016080880152929350916115108484610f49565b93508160808801511660a087015260a08701519250808685030160c0870152505061153b8282610f49565b95945050505050565b60006020828403121561155657600080fd5b505191905056fea2646970667358221220a2a06dd736ec4ec8021a96b2ec07c9e7efbd4afab539a03d0352466b76183c6064736f6c63430008130033",
    "linkReferences": {}
  },
  "methodIdentifiers": {
    "HUB()": "a4c52b86",
    "announcements(uint256)": "1bcfbe31",
    "becomePartner(uint256,uint256)": "dfcea927",
    "createAnnouncement(string,string,uint256[])": "2ede1b44",
    "getPartnerRequests(uint256)": "49fc97d9",
    "getPartners(uint256)": "a8cbf238",
    "post(uint256)": "caa5863c"
  },
  "id": 0
}