{
  "abi": [
    {
      "inputs": [
        {
          "internalType": "address",
          "name": "hub",
          "type": "address"
        }
      ],
      "stateMutability": "nonpayable",
      "type": "constructor"
    },
    {
      "anonymous": false,
      "inputs": [
        {
          "indexed": true,
          "internalType": "uint256",
          "name": "id",
          "type": "uint256"
        },
        {
          "indexed": false,
          "internalType": "string",
          "name": "descriptionCid",
          "type": "string"
        },
        {
          "indexed": false,
          "internalType": "string",
          "name": "postContentCid",
          "type": "string"
        },
        {
          "indexed": false,
          "internalType": "uint256[]",
          "name": "partnerRequests",
          "type": "uint256[]"
        }
      ],
      "name": "EventCreated",
      "type": "event"
    },
    {
      "inputs": [],
      "name": "HUB",
      "outputs": [
        {
          "internalType": "address",
          "name": "",
          "type": "address"
        }
      ],
      "stateMutability": "view",
      "type": "function"
    },
    {
      "inputs": [
        {
          "internalType": "uint256",
          "name": "eventId",
          "type": "uint256"
        },
        {
          "internalType": "uint256",
          "name": "partnerRequestIndex",
          "type": "uint256"
        }
      ],
      "name": "becomePartner",
      "outputs": [],
      "stateMutability": "nonpayable",
      "type": "function"
    },
    {
      "inputs": [
        {
          "internalType": "string",
          "name": "descriptionCid",
          "type": "string"
        },
        {
          "internalType": "string",
          "name": "postContentCid",
          "type": "string"
        },
        {
          "internalType": "uint256[]",
          "name": "partnerRequests",
          "type": "uint256[]"
        }
      ],
      "name": "createEvent",
      "outputs": [
        {
          "internalType": "uint256",
          "name": "",
          "type": "uint256"
        }
      ],
      "stateMutability": "nonpayable",
      "type": "function"
    },
    {
      "inputs": [
        {
          "internalType": "uint256",
          "name": "",
          "type": "uint256"
        }
      ],
      "name": "events",
      "outputs": [
        {
          "internalType": "uint256",
          "name": "id",
          "type": "uint256"
        },
        {
          "internalType": "string",
          "name": "descriptionCid",
          "type": "string"
        },
        {
          "internalType": "string",
          "name": "postContentCid",
          "type": "string"
        },
        {
          "internalType": "address",
          "name": "owner",
          "type": "address"
        }
      ],
      "stateMutability": "view",
      "type": "function"
    },
    {
      "inputs": [
        {
          "internalType": "uint256",
          "name": "id",
          "type": "uint256"
        }
      ],
      "name": "getPartnerRequests",
      "outputs": [
        {
          "components": [
            {
              "internalType": "uint256",
              "name": "profileId",
              "type": "uint256"
            },
            {
              "internalType": "bool",
              "name": "isAccepted",
              "type": "bool"
            }
          ],
          "internalType": "struct LensBalus.PartnerRequest[]",
          "name": "",
          "type": "tuple[]"
        }
      ],
      "stateMutability": "view",
      "type": "function"
    },
    {
      "inputs": [
        {
          "internalType": "uint256",
          "name": "id",
          "type": "uint256"
        }
      ],
      "name": "getPartners",
      "outputs": [
        {
          "components": [
            {
              "internalType": "uint256",
              "name": "profileId",
              "type": "uint256"
            },
            {
              "internalType": "uint256",
              "name": "pubId",
              "type": "uint256"
            }
          ],
          "internalType": "struct LensBalus.Partner[]",
          "name": "",
          "type": "tuple[]"
        }
      ],
      "stateMutability": "view",
      "type": "function"
    },
    {
      "inputs": [
        {
          "internalType": "uint256",
          "name": "eventId",
          "type": "uint256"
        }
      ],
      "name": "post",
      "outputs": [],
      "stateMutability": "nonpayable",
      "type": "function"
    }
  ],
  "bytecode": {
    "object": "0x60a060405234801561001057600080fd5b5060405161168138038061168183398101604081905261002f916100b0565b6001600160a01b03811661009f5760405162461bcd60e51b815260206004820152602d60248201527f4c656e73506f73745363686564756c65723a206875622063616e6e6f7420626560448201526c207a65726f206164647265737360981b606482015260840160405180910390fd5b6001600160a01b03166080526100e0565b6000602082840312156100c257600080fd5b81516001600160a01b03811681146100d957600080fd5b9392505050565b60805161157261010f6000396000818160d3015281816108a0015281816109380152610c3201526115726000f3fe608060405234801561001057600080fd5b506004361061007d5760003560e01c8063a8cbf2381161005b578063a8cbf2381461010d578063caa5863c1461012d578063dfcea92714610142578063e950eb951461015557600080fd5b80630b7914301461008257806349fc97d9146100ae578063a4c52b86146100ce575b600080fd5b610095610090366004610f1e565b610176565b6040516100a59493929190610f7d565b60405180910390f35b6100c16100bc366004610f1e565b6102b8565b6040516100a59190610fc2565b6100f57f000000000000000000000000000000000000000000000000000000000000000081565b6040516001600160a01b0390911681526020016100a5565b61012061011b366004610f1e565b61052a565b6040516100a59190611013565b61014061013b366004610f1e565b610793565b005b610140610150366004611055565b610afd565b61016861016336600461112e565b610d72565b6040519081526020016100a5565b600060208190529081526040902080546001820180549192916101989061121b565b80601f01602080910402602001604051908101604052809291908181526020018280546101c49061121b565b80156102115780601f106101e657610100808354040283529160200191610211565b820191906000526020600020905b8154815290600101906020018083116101f457829003601f168201915b5050505050908060020180546102269061121b565b80601f01602080910402602001604051908101604052809291908181526020018280546102529061121b565b801561029f5780601f106102745761010080835404028352916020019161029f565b820191906000526020600020905b81548152906001019060200180831161028257829003601f168201915b505050600390930154919250506001600160a01b031684565b600081815260208181526040808320815160c081019092528054825260018101805460609594840191906102eb9061121b565b80601f01602080910402602001604051908101604052809291908181526020018280546103179061121b565b80156103645780601f1061033957610100808354040283529160200191610364565b820191906000526020600020905b81548152906001019060200180831161034757829003601f168201915b5050505050815260200160028201805461037d9061121b565b80601f01602080910402602001604051908101604052809291908181526020018280546103a99061121b565b80156103f65780601f106103cb576101008083540402835291602001916103f6565b820191906000526020600020905b8154815290600101906020018083116103d957829003601f168201915b505050918352505060038201546001600160a01b0316602080830191909152600483018054604080518285028101850182528281529401939260009084015b8282101561047957600084815260209081902060408051808201909152600285029091018054825260019081015460ff161515828401529083529092019101610435565b50505050815260200160058201805480602002602001604051908101604052809291908181526020016000905b828210156104ec578382906000526020600020906002020160405180604001604052908160008201548152602001600182015481525050815260200190600101906104a6565b5050509152505080519091506000036105205760405162461bcd60e51b815260040161051790611255565b60405180910390fd5b6080015192915050565b600081815260208181526040808320815160c0810190925280548252600181018054606095948401919061055d9061121b565b80601f01602080910402602001604051908101604052809291908181526020018280546105899061121b565b80156105d65780601f106105ab576101008083540402835291602001916105d6565b820191906000526020600020905b8154815290600101906020018083116105b957829003601f168201915b505050505081526020016002820180546105ef9061121b565b80601f016020809104026020016040519081016040528092919081815260200182805461061b9061121b565b80156106685780601f1061063d57610100808354040283529160200191610668565b820191906000526020600020905b81548152906001019060200180831161064b57829003601f168201915b505050918352505060038201546001600160a01b0316602080830191909152600483018054604080518285028101850182528281529401939260009084015b828210156106eb57600084815260209081902060408051808201909152600285029091018054825260019081015460ff1615158284015290835290920191016106a7565b50505050815260200160058201805480602002602001604051908101604052809291908181526020016000905b8282101561075e57838290600052602060002090600202016040518060400160405290816000820154815260200160018201548152505081526020019060010190610718565b5050509152505080519091506000036107895760405162461bcd60e51b815260040161051790611255565b60a0015192915050565b600081815260208190526040812080549091036107c25760405162461bcd60e51b815260040161051790611255565b60038101546001600160a01b031633146108355760405162461bcd60e51b815260206004820152602e60248201527f4c656e7342616c75733a20796f7520617265206e6f7420746865206f776e657260448201526d081bd9881d1a1a5cc8195d995b9d60921b6064820152608401610517565b60005b6005820154811015610af857600082600501828154811061085b5761085b61128c565b90600052602060002090600202019050806000015460000361087d5750610ae6565b60018101541561088d5750610ae6565b805460405163540528b960e01b815230917f00000000000000000000000000000000000000000000000000000000000000006001600160a01b03169163540528b9916108df9160040190815260200190565b602060405180830381865afa1580156108fc573d6000803e3d6000fd5b505050506040513d601f19601f8201168201806040525081019061092091906112a2565b6001600160a01b0316036109345750610ae6565b60007f00000000000000000000000000000000000000000000000000000000000000006001600160a01b031663963ff1416040518060c00160405280856000015481526020018760020180546109899061121b565b80601f01602080910402602001604051908101604052809291908181526020018280546109b59061121b565b8015610a025780601f106109d757610100808354040283529160200191610a02565b820191906000526020600020905b8154815290600101906020018083116109e557829003601f168201915b50505050508152602001730be6bd7092ee83d44a6ec1d949626fee48cab30c6001600160a01b031681526020016000604051602001610a45911515815260200190565b604051602081830303815290604052815260200160006001600160a01b03168152602001604051806020016040528060008152508152506040518263ffffffff1660e01b8152600401610a9891906112d2565b6020604051808303816000875af1158015610ab7573d6000803e3d6000fd5b505050506040513d601f19601f82011682018060405250810190610adb9190611364565b600190920191909155505b80610af081611393565b915050610838565b505050565b60008281526020819052604081208054909103610b2c5760405162461bcd60e51b815260040161051790611255565b6000816004018381548110610b4357610b4361128c565b906000526020600020906002020190508060000154600003610bb15760405162461bcd60e51b815260206004820152602160248201527f4c656e7342616c75733a207265717565737420646f6573206e6f7420657869736044820152601d60fa1b6064820152608401610517565b60018082015460ff1615159003610c1f5760405162461bcd60e51b815260206004820152602c60248201527f4c656e7342616c75733a20726571756573742068617320616c7265616479206260448201526b19595b881858d8d95c1d195960a21b6064820152608401610517565b80546040516331a9108f60e11b815233917f00000000000000000000000000000000000000000000000000000000000000006001600160a01b031691636352211e91610c719160040190815260200190565b602060405180830381865afa158015610c8e573d6000803e3d6000fd5b505050506040513d601f19601f82011682018060405250810190610cb291906112a2565b6001600160a01b031614610d245760405162461bcd60e51b815260206004820152603360248201527f4c656e7342616c75733a20796f752068617665206e6f742072656365697665646044820152721030903830b93a3732b9103932b8bab2b9ba1760691b6064820152608401610517565b6001818101805460ff19168217905560408051808201909152915482526000602080840182815260059095018054808501825590835291209251600290910290920191825591519101555050565b60008033610d816001436113ac565b60405160609290921b6bffffffffffffffffffffffff1916602083015240603482015260540160408051601f198184030181529181528151602092830120600081815292839052912080549192509015610e1d5760405162461bcd60e51b815260206004820152601f60248201527f4c656e7342616c75733a206576656e7420616c726561647920657869737473006044820152606401610517565b81815560018101610e2e8782611413565b5060028101610e3d8682611413565b506003810180546001600160a01b0319163317905560005b8451811015610ed857816004016040518060400160405280878481518110610e7f57610e7f61128c565b6020908102919091018101518252600091810182905283546001808201865594835291819020835160029093020191825591909101519101805460ff191691151591909117905580610ed081611393565b915050610e55565b50817f10d8967de57e126f468f12b30597ec9cd77684e93a72136407ccc733344d0666878787604051610f0d939291906114d3565b60405180910390a250949350505050565b600060208284031215610f3057600080fd5b5035919050565b6000815180845260005b81811015610f5d57602081850181015186830182015201610f41565b506000602082860101526020601f19601f83011685010191505092915050565b848152608060208201526000610f966080830186610f37565b8281036040840152610fa88186610f37565b91505060018060a01b038316606083015295945050505050565b602080825282518282018190526000919060409081850190868401855b82811015611006578151805185528601511515868501529284019290850190600101610fdf565b5091979650505050505050565b602080825282518282018190526000919060409081850190868401855b8281101561100657815180518552860151868501529284019290850190600101611030565b6000806040838503121561106857600080fd5b50508035926020909101359150565b634e487b7160e01b600052604160045260246000fd5b604051601f8201601f1916810167ffffffffffffffff811182821017156110b6576110b6611077565b604052919050565b600082601f8301126110cf57600080fd5b813567ffffffffffffffff8111156110e9576110e9611077565b6110fc601f8201601f191660200161108d565b81815284602083860101111561111157600080fd5b816020850160208301376000918101602001919091529392505050565b60008060006060848603121561114357600080fd5b833567ffffffffffffffff8082111561115b57600080fd5b611167878388016110be565b945060209150818601358181111561117e57600080fd5b61118a888289016110be565b94505060408601358181111561119f57600080fd5b8601601f810188136111b057600080fd5b8035828111156111c2576111c2611077565b8060051b92506111d384840161108d565b818152928201840192848101908a8511156111ed57600080fd5b928501925b8484101561120b578335825292850192908501906111f2565b8096505050505050509250925092565b600181811c9082168061122f57607f821691505b60208210810361124f57634e487b7160e01b600052602260045260246000fd5b50919050565b6020808252601f908201527f4c656e7342616c75733a206576656e7420646f6573206e6f7420657869737400604082015260600190565b634e487b7160e01b600052603260045260246000fd5b6000602082840312156112b457600080fd5b81516001600160a01b03811681146112cb57600080fd5b9392505050565b60208152815160208201526000602083015160c060408401526112f860e0840182610f37565b60408501516001600160a01b03908116606086810191909152860151858303601f199081016080880152929350916113308484610f37565b93508160808801511660a087015260a08701519250808685030160c0870152505061135b8282610f37565b95945050505050565b60006020828403121561137657600080fd5b5051919050565b634e487b7160e01b600052601160045260246000fd5b6000600182016113a5576113a561137d565b5060010190565b818103818111156113bf576113bf61137d565b92915050565b601f821115610af857600081815260208120601f850160051c810160208610156113ec5750805b601f850160051c820191505b8181101561140b578281556001016113f8565b505050505050565b815167ffffffffffffffff81111561142d5761142d611077565b6114418161143b845461121b565b846113c5565b602080601f831160018114611476576000841561145e5750858301515b600019600386901b1c1916600185901b17855561140b565b600085815260208120601f198616915b828110156114a557888601518255948401946001909101908401611486565b50858210156114c35787850151600019600388901b60f8161c191681555b5050505050600190811b01905550565b6060815260006114e66060830186610f37565b6020838203818501526114f98287610f37565b8481036040860152855180825282870193509082019060005b8181101561152e57845183529383019391830191600101611512565b50909897505050505050505056fea26469706673582212200abe8c7e64ee168d311c36b3e4522ba7f5ed842eb3d1e8f16998915cabde5f8064736f6c63430008130033",
    "linkReferences": {}
  },
  "methodIdentifiers": {
    "HUB()": "a4c52b86",
    "becomePartner(uint256,uint256)": "dfcea927",
    "createEvent(string,string,uint256[])": "e950eb95",
    "events(uint256)": "0b791430",
    "getPartnerRequests(uint256)": "49fc97d9",
    "getPartners(uint256)": "a8cbf238",
    "post(uint256)": "caa5863c"
  },
  "id": 0
}