{
  "abi": [
    {
      "inputs": [
        {
          "internalType": "address",
          "name": "hub",
          "type": "address"
        }
      ],
      "stateMutability": "nonpayable",
      "type": "constructor"
    },
    {
      "anonymous": false,
      "inputs": [
        {
          "indexed": true,
          "internalType": "uint256",
          "name": "id",
          "type": "uint256"
        },
        {
          "indexed": false,
          "internalType": "string",
          "name": "descriptionCid",
          "type": "string"
        },
        {
          "indexed": false,
          "internalType": "string",
          "name": "postContentCid",
          "type": "string"
        },
        {
          "indexed": false,
          "internalType": "uint256[]",
          "name": "partnerRequests",
          "type": "uint256[]"
        }
      ],
      "name": "EventCreated",
      "type": "event"
    },
    {
      "inputs": [],
      "name": "HUB",
      "outputs": [
        {
          "internalType": "address",
          "name": "",
          "type": "address"
        }
      ],
      "stateMutability": "view",
      "type": "function"
    },
    {
      "inputs": [
        {
          "internalType": "uint256",
          "name": "eventId",
          "type": "uint256"
        },
        {
          "internalType": "uint256",
          "name": "partnerRequestIndex",
          "type": "uint256"
        }
      ],
      "name": "becomePartner",
      "outputs": [],
      "stateMutability": "nonpayable",
      "type": "function"
    },
    {
      "inputs": [
        {
          "internalType": "string",
          "name": "descriptionCid",
          "type": "string"
        },
        {
          "internalType": "string",
          "name": "postContentCid",
          "type": "string"
        },
        {
          "internalType": "uint256[]",
          "name": "partnerRequests",
          "type": "uint256[]"
        }
      ],
      "name": "createEvent",
      "outputs": [
        {
          "internalType": "uint256",
          "name": "",
          "type": "uint256"
        }
      ],
      "stateMutability": "nonpayable",
      "type": "function"
    },
    {
      "inputs": [
        {
          "internalType": "uint256",
          "name": "",
          "type": "uint256"
        }
      ],
      "name": "events",
      "outputs": [
        {
          "internalType": "uint256",
          "name": "id",
          "type": "uint256"
        },
        {
          "internalType": "string",
          "name": "descriptionCid",
          "type": "string"
        },
        {
          "internalType": "string",
          "name": "postContentCid",
          "type": "string"
        },
        {
          "internalType": "address",
          "name": "owner",
          "type": "address"
        },
        {
          "internalType": "bool",
          "name": "isPosted",
          "type": "bool"
        }
      ],
      "stateMutability": "view",
      "type": "function"
    },
    {
      "inputs": [
        {
          "internalType": "uint256",
          "name": "id",
          "type": "uint256"
        }
      ],
      "name": "getPartnerRequests",
      "outputs": [
        {
          "components": [
            {
              "internalType": "uint256",
              "name": "profileId",
              "type": "uint256"
            },
            {
              "internalType": "bool",
              "name": "isAccepted",
              "type": "bool"
            }
          ],
          "internalType": "struct LensBalus.PartnerRequest[]",
          "name": "",
          "type": "tuple[]"
        }
      ],
      "stateMutability": "view",
      "type": "function"
    },
    {
      "inputs": [
        {
          "internalType": "uint256",
          "name": "id",
          "type": "uint256"
        }
      ],
      "name": "getPartners",
      "outputs": [
        {
          "components": [
            {
              "internalType": "uint256",
              "name": "profileId",
              "type": "uint256"
            },
            {
              "internalType": "uint256",
              "name": "pubId",
              "type": "uint256"
            }
          ],
          "internalType": "struct LensBalus.Partner[]",
          "name": "",
          "type": "tuple[]"
        }
      ],
      "stateMutability": "view",
      "type": "function"
    },
    {
      "inputs": [
        {
          "internalType": "uint256",
          "name": "eventId",
          "type": "uint256"
        }
      ],
      "name": "post",
      "outputs": [],
      "stateMutability": "nonpayable",
      "type": "function"
    }
  ],
  "bytecode": {
    "object": "0x60a060405234801561001057600080fd5b506040516117b73803806117b783398101604081905261002f916100b0565b6001600160a01b03811661009f5760405162461bcd60e51b815260206004820152602d60248201527f4c656e73506f73745363686564756c65723a206875622063616e6e6f7420626560448201526c207a65726f206164647265737360981b606482015260840160405180910390fd5b6001600160a01b03166080526100e0565b6000602082840312156100c257600080fd5b81516001600160a01b03811681146100d957600080fd5b9392505050565b6080516116a861010f6000396000818160d401528181610959015281816109f10152610c9401526116a86000f3fe608060405234801561001057600080fd5b506004361061007d5760003560e01c8063a8cbf2381161005b578063a8cbf2381461010e578063caa5863c1461012e578063dfcea92714610143578063e950eb951461015657600080fd5b80630b7914301461008257806349fc97d9146100af578063a4c52b86146100cf575b600080fd5b610095610090366004610f80565b610177565b6040516100a6959493929190610fdf565b60405180910390f35b6100c26100bd366004610f80565b6102c6565b6040516100a6919061102d565b6100f67f000000000000000000000000000000000000000000000000000000000000000081565b6040516001600160a01b0390911681526020016100a6565b61012161011c366004610f80565b610555565b6040516100a6919061107e565b61014161013c366004610f80565b6107db565b005b6101416101513660046110c0565b610b5f565b610169610164366004611199565b610dd4565b6040519081526020016100a6565b6000602081905290815260409020805460018201805491929161019990611286565b80601f01602080910402602001604051908101604052809291908181526020018280546101c590611286565b80156102125780601f106101e757610100808354040283529160200191610212565b820191906000526020600020905b8154815290600101906020018083116101f557829003601f168201915b50505050509080600201805461022790611286565b80601f016020809104026020016040519081016040528092919081815260200182805461025390611286565b80156102a05780601f10610275576101008083540402835291602001916102a0565b820191906000526020600020905b81548152906001019060200180831161028357829003601f168201915b505050600390930154919250506001600160a01b0381169060ff600160a01b9091041685565b600081815260208181526040808320815160e081019092528054825260018101805460609594840191906102f990611286565b80601f016020809104026020016040519081016040528092919081815260200182805461032590611286565b80156103725780601f1061034757610100808354040283529160200191610372565b820191906000526020600020905b81548152906001019060200180831161035557829003601f168201915b5050505050815260200160028201805461038b90611286565b80601f01602080910402602001604051908101604052809291908181526020018280546103b790611286565b80156104045780601f106103d957610100808354040283529160200191610404565b820191906000526020600020905b8154815290600101906020018083116103e757829003601f168201915b505050918352505060038201546001600160a01b038116602080840191909152600160a01b90910460ff161515604080840191909152600484018054825181850281018501909352808352606090940193919290919060009084015b828210156104a457600084815260209081902060408051808201909152600285029091018054825260019081015460ff161515828401529083529092019101610460565b50505050815260200160058201805480602002602001604051908101604052809291908181526020016000905b82821015610517578382906000526020600020906002020160405180604001604052908160008201548152602001600182015481525050815260200190600101906104d1565b50505091525050805190915060000361054b5760405162461bcd60e51b8152600401610542906112c0565b60405180910390fd5b60a0015192915050565b600081815260208181526040808320815160e0810190925280548252600181018054606095948401919061058890611286565b80601f01602080910402602001604051908101604052809291908181526020018280546105b490611286565b80156106015780601f106105d657610100808354040283529160200191610601565b820191906000526020600020905b8154815290600101906020018083116105e457829003601f168201915b5050505050815260200160028201805461061a90611286565b80601f016020809104026020016040519081016040528092919081815260200182805461064690611286565b80156106935780601f1061066857610100808354040283529160200191610693565b820191906000526020600020905b81548152906001019060200180831161067657829003601f168201915b505050918352505060038201546001600160a01b038116602080840191909152600160a01b90910460ff161515604080840191909152600484018054825181850281018501909352808352606090940193919290919060009084015b8282101561073357600084815260209081902060408051808201909152600285029091018054825260019081015460ff1615158284015290835290920191016106ef565b50505050815260200160058201805480602002602001604051908101604052809291908181526020016000905b828210156107a657838290600052602060002090600202016040518060400160405290816000820154815260200160018201548152505081526020019060010190610760565b5050509152505080519091506000036107d15760405162461bcd60e51b8152600401610542906112c0565b60c0015192915050565b6000818152602081905260408120805490910361080a5760405162461bcd60e51b8152600401610542906112c0565b60038101546001600160a01b0316331461087d5760405162461bcd60e51b815260206004820152602e60248201527f4c656e7342616c75733a20796f7520617265206e6f7420746865206f776e657260448201526d081bd9881d1a1a5cc8195d995b9d60921b6064820152608401610542565b6003810154600160a01b900460ff1615156001036108ee5760405162461bcd60e51b815260206004820152602860248201527f4c656e7342616c75733a206576656e742068617320616c7265616479206265656044820152671b881c1bdcdd195960c21b6064820152608401610542565b60005b6005820154811015610b47576000826005018281548110610914576109146112f7565b9060005260206000209060020201905080600001546000036109365750610b35565b6001810154156109465750610b35565b805460405163540528b960e01b815230917f00000000000000000000000000000000000000000000000000000000000000006001600160a01b03169163540528b9916109989160040190815260200190565b602060405180830381865afa1580156109b5573d6000803e3d6000fd5b505050506040513d601f19601f820116820180604052508101906109d9919061130d565b6001600160a01b0316146109ed5750610b35565b60007f00000000000000000000000000000000000000000000000000000000000000006001600160a01b031663963ff1416040518060c001604052808560000154815260200187600201604051602001610a47919061133d565b6040516020818303038152906040528152602001730be6bd7092ee83d44a6ec1d949626fee48cab30c6001600160a01b031681526020016000604051602001610a94911515815260200190565b604051602081830303815290604052815260200160006001600160a01b03168152602001604051806020016040528060008152508152506040518263ffffffff1660e01b8152600401610ae79190611407565b6020604051808303816000875af1158015610b06573d6000803e3d6000fd5b505050506040513d601f19601f82011682018060405250810190610b2a9190611499565b600190920191909155505b80610b3f816114c8565b9150506108f1565b50600301805460ff60a01b1916600160a01b17905550565b60008281526020819052604081208054909103610b8e5760405162461bcd60e51b8152600401610542906112c0565b6000816004018381548110610ba557610ba56112f7565b906000526020600020906002020190508060000154600003610c135760405162461bcd60e51b815260206004820152602160248201527f4c656e7342616c75733a207265717565737420646f6573206e6f7420657869736044820152601d60fa1b6064820152608401610542565b60018082015460ff1615159003610c815760405162461bcd60e51b815260206004820152602c60248201527f4c656e7342616c75733a20726571756573742068617320616c7265616479206260448201526b19595b881858d8d95c1d195960a21b6064820152608401610542565b80546040516331a9108f60e11b815233917f00000000000000000000000000000000000000000000000000000000000000006001600160a01b031691636352211e91610cd39160040190815260200190565b602060405180830381865afa158015610cf0573d6000803e3d6000fd5b505050506040513d601f19601f82011682018060405250810190610d14919061130d565b6001600160a01b031614610d865760405162461bcd60e51b815260206004820152603360248201527f4c656e7342616c75733a20796f752068617665206e6f742072656365697665646044820152721030903830b93a3732b9103932b8bab2b9ba1760691b6064820152608401610542565b6001818101805460ff19168217905560408051808201909152915482526000602080840182815260059095018054808501825590835291209251600290910290920191825591519101555050565b60008033610de36001436114e1565b60405160609290921b6bffffffffffffffffffffffff1916602083015240603482015260540160408051601f198184030181529181528151602092830120600081815292839052912080549192509015610e7f5760405162461bcd60e51b815260206004820152601f60248201527f4c656e7342616c75733a206576656e7420616c726561647920657869737473006044820152606401610542565b81815560018101610e908782611549565b5060028101610e9f8682611549565b506003810180546001600160a01b0319163317905560005b8451811015610f3a57816004016040518060400160405280878481518110610ee157610ee16112f7565b6020908102919091018101518252600091810182905283546001808201865594835291819020835160029093020191825591909101519101805460ff191691151591909117905580610f32816114c8565b915050610eb7565b50817f10d8967de57e126f468f12b30597ec9cd77684e93a72136407ccc733344d0666878787604051610f6f93929190611609565b60405180910390a250949350505050565b600060208284031215610f9257600080fd5b5035919050565b6000815180845260005b81811015610fbf57602081850181015186830182015201610fa3565b506000602082860101526020601f19601f83011685010191505092915050565b85815260a060208201526000610ff860a0830187610f99565b828103604084015261100a8187610f99565b6001600160a01b0395909516606084015250509015156080909101529392505050565b602080825282518282018190526000919060409081850190868401855b8281101561107157815180518552860151151586850152928401929085019060010161104a565b5091979650505050505050565b602080825282518282018190526000919060409081850190868401855b828110156110715781518051855286015186850152928401929085019060010161109b565b600080604083850312156110d357600080fd5b50508035926020909101359150565b634e487b7160e01b600052604160045260246000fd5b604051601f8201601f1916810167ffffffffffffffff81118282101715611121576111216110e2565b604052919050565b600082601f83011261113a57600080fd5b813567ffffffffffffffff811115611154576111546110e2565b611167601f8201601f19166020016110f8565b81815284602083860101111561117c57600080fd5b816020850160208301376000918101602001919091529392505050565b6000806000606084860312156111ae57600080fd5b833567ffffffffffffffff808211156111c657600080fd5b6111d287838801611129565b94506020915081860135818111156111e957600080fd5b6111f588828901611129565b94505060408601358181111561120a57600080fd5b8601601f8101881361121b57600080fd5b80358281111561122d5761122d6110e2565b8060051b925061123e8484016110f8565b818152928201840192848101908a85111561125857600080fd5b928501925b848410156112765783358252928501929085019061125d565b8096505050505050509250925092565b600181811c9082168061129a57607f821691505b6020821081036112ba57634e487b7160e01b600052602260045260246000fd5b50919050565b6020808252601f908201527f4c656e7342616c75733a206576656e7420646f6573206e6f7420657869737400604082015260600190565b634e487b7160e01b600052603260045260246000fd5b60006020828403121561131f57600080fd5b81516001600160a01b038116811461133657600080fd5b9392505050565b7f68747470733a2f2f616d6172616e74682d7065726d616e656e742d74617273698152600060207f65722d3234382e6d7970696e6174612e636c6f75642f697066732f000000000081840152603b6000855461139881611286565b600182811680156113b057600181146113c9576113f9565b60ff1984168987015282151583028901860194506113f9565b896000528660002060005b848110156113ef5781548b82018901529083019088016113d4565b505085838a010194505b509298975050505050505050565b60208152815160208201526000602083015160c0604084015261142d60e0840182610f99565b60408501516001600160a01b03908116606086810191909152860151858303601f199081016080880152929350916114658484610f99565b93508160808801511660a087015260a08701519250808685030160c087015250506114908282610f99565b95945050505050565b6000602082840312156114ab57600080fd5b5051919050565b634e487b7160e01b600052601160045260246000fd5b6000600182016114da576114da6114b2565b5060010190565b818103818111156114f4576114f46114b2565b92915050565b601f82111561154457600081815260208120601f850160051c810160208610156115215750805b601f850160051c820191505b818110156115405782815560010161152d565b5050505b505050565b815167ffffffffffffffff811115611563576115636110e2565b611577816115718454611286565b846114fa565b602080601f8311600181146115ac57600084156115945750858301515b600019600386901b1c1916600185901b178555611540565b600085815260208120601f198616915b828110156115db578886015182559484019460019091019084016115bc565b50858210156115f95787850151600019600388901b60f8161c191681555b5050505050600190811b01905550565b60608152600061161c6060830186610f99565b60208382038185015261162f8287610f99565b8481036040860152855180825282870193509082019060005b8181101561166457845183529383019391830191600101611648565b50909897505050505050505056fea26469706673582212208ca3d1781498a4eed6fcc89736c0b95673b82a3e8ded0c7019ac7af6e611d1b964736f6c63430008130033",
    "linkReferences": {}
  },
  "methodIdentifiers": {
    "HUB()": "a4c52b86",
    "becomePartner(uint256,uint256)": "dfcea927",
    "createEvent(string,string,uint256[])": "e950eb95",
    "events(uint256)": "0b791430",
    "getPartnerRequests(uint256)": "49fc97d9",
    "getPartners(uint256)": "a8cbf238",
    "post(uint256)": "caa5863c"
  },
  "id": 0
}